:100000000C9434000C9451000C9451000C94510049
:100010000C9451000C9451000C9451000C9451001C
:100020000C9451000C9451000C9451000C9451000C
:100030000C9451000C9451000C9451000C945100FC
:100040000C9451000C9451000C9453000C946700D4
:100050000C945D000C9451000C9451000C945100D0
:100060000C9451000C94510011241FBECFEFD8E026
:10007000DEBFCDBF11E0A0E0B1E0ECECF8E002C0E3
:1000800005900D92A033B107D9F721E0A0E3B1E0CC
:1000900001C01D92AD36B207E1F70E9409010C9430
:1000A00064040C9400001F920F920FB60F9211245B
:1000B0000F900FBE0F901F9018951F920F920FB6C2
:1000C0000F9211240F900FBE0F901F9018951F9242
:1000D0000F920FB60F9211240F900FBE0F901F902A
:1000E0001895FC0182819181981738F0891710F0DA
:1000F00080E808958158891B08958150891B0895CF
:10010000FC0182819181981780F4282F2150291BAE
:100110002038A1F0DF01A80FB11D13966C938F5FFB
:10012000803849F0828380E00895891738F4282FB9
:100130002158291BEDCF128280E0089581E00895B7
:10014000FC0192818181891790F49150981B90381D
:10015000B1F0DF01A80FB11D13968C91DB018C93D8
:1001600081818F5F803841F0818380E00895981706
:1001700030F49158981BEBCF118280E0089581E014
:100180000895FC0122812183322F3E5F313830F007
:100190002E57FC01228303960C9488013283039628
:1001A0000C9488019091C00095FFFCCF8093C6000D
:1001B00008959093C5008093C40088E18093C100A6
:1001C0008EE08093C20008952BB1206E2BB9289A3F
:1001D000009799F08A3091055CF082339105B4F074
:1001E0008A3591057CF08BB18BB985B185B90895BD
:1001F0008BB18F738BB9289808958BB18F718BB9A0
:10020000289808958BB18BB9289808955F982898FD
:100210000895CF93DF93CDB7DEB7C458D1090FB699
:10022000F894DEBF0FBECDBF8E010F5F1F4F83E876
:10023000F80111928A95E9F781E08B8342E350E05F
:1002400060E370E080E391E00E9481011F9283E609
:100250008F9381E091E09F938F938AE291E09F9347
:100260008F9380E391E09F938F930E948F0160E3CF
:1002700071E0C8010E94C100209A8AB1806E8AB9DB
:100280008BB1806E8BB91092C50085E08093C4005D
:1002900088E18093C1008EE08093C2000FB6F8948D
:1002A000DEBF0FBECDBF9B818A81891768F4915054
:1002B000981B79F44B9B20C08BB1806E8BB9289A28
:1002C0009B818A81891798F3981718F49158981B85
:1002D00089F3BE016C577F4FC8010E94A000CC5724
:1002E000DF4F9881C458D0408091C00085FFFCCF7B
:1002F0009093C6004B99E0CF8BB18F718BB9289842
:10030000D2CFDC0101C06D9341505040E0F7089519
:10031000FB01DC0101900D920020E1F70895AEE0B1
:10032000B0E0E5E9F1E00C943B040D891E8986E01C
:100330008C831A8309838FEF9FE79E838D83CE0181
:100340004996AC016F89788DCE0101960E94B1016A
:10035000EF81F885E00FF11F10822E96E4E00C94F7
:100360005704ACE0B0E0E7EBF1E00C942D047C0125
:100370006B018A01FC0117821682838181FFC6C14D
:1003800088248394912C8C0E9D1EF7019381F60195
:1003900093FD859193FF81916F01882309F4B2C188
:1003A000853239F493FD859193FF81916F018532F8
:1003B00029F4B70190E00E94A303E7CF512C312C20
:1003C00020E02032A8F48B3261F028F4803251F022
:1003D000833271F40BC08D3239F0803349F42160DF
:1003E00028C02260246025C0286023C0206121C06D
:1003F00027FD27C0382F30533A3078F426FF06C047
:10040000FAE05F9E300D1124532E13C08AE0389E0F
:10041000300D1124332E20620CC08E3221F426FDC3
:1004200071C1206406C08C3611F4206802C0883681
:1004300041F4F60193FD859193FF81916F01811144
:10044000C0CF982F9554933018F09052933028F4E1
:100450000C5F1F4FFFE3F9830DC0833631F0833704
:1004600071F0833509F05EC023C0F8018081898373
:100470000E5F1F4F44244394512C540115C0380182
:10048000F2E06F0E711CF801A080B18026FF03C05E
:10049000652D70E002C06FEF7FEFC5012C870E94D1
:1004A00098032C0183012C856FE7262E222218C089
:1004B0003801F2E06F0E711CF801A080B18026FFB8
:1004C00003C0652D70E002C06FEF7FEFC5012C8780
:1004D0000E948D032C012C8550E8252E222A8301B1
:1004E00023FC1CC006C0B70180E290E00E94A30379
:1004F0003A94832D90E048165906A8F30FC0F501F1
:1005000027FC859127FE81915F01B70190E00E9451
:10051000A30331103A94F1E04F1A510841145104E9
:1005200071F7EDC0843611F0893641F5F80127FFE7
:1005300007C060817181828193810C5F1F4F08C069
:1005400060817181882777FD8095982F0E5F1F4FFE
:100550004FE6B42EB22297FF09C090958095709512
:1005600061957F4F8F4F9F4FF0E8BF2A2AE030E020
:10057000A4010E94CF03A82EA81843C0853731F4E8
:100580003FEEB32EB2222AE030E024C099EFB92E1C
:10059000B2228F36B9F020F4883509F0B3C00DC00F
:1005A000803721F0883709F0ADC002C020E1B22ABF
:1005B000B4FE0BC084E0B82A08C024FF09C0E6E0FE
:1005C000BE2A06C028E030E005C020E130E002C0CD
:1005D00020E132E0F801B7FE07C0608171818281BD
:1005E00093810C5F1F4F06C06081718180E090E0B5
:1005F0000E5F1F4FA4010E94CF03A82EA818FFE78B
:10060000BF22B6FE0BC02B2D2E7FA51450F4B4FED6
:100610000AC0B2FC08C02B2D2E7E05C07A2C2B2DD3
:1006200003C07A2C01C0752C24FF0DC0FE01EA0D19
:10063000F11D8081803311F4297E09C022FF06C09C
:100640007394739404C0822F867809F0739423FD09
:1006500014C020FF0FC05A2C731460F4530C5718A9
:10066000732C08C0B70180E290E02C870E94A3039E
:1006700073942C857314B0F304C0731410F43718FA
:1006800001C0312C24FF12C0B70180E390E02C8719
:100690000E94A3032C8522FF1EC021FF03C088E512
:1006A00090E002C088E790E0B7010CC0822F867806
:1006B00091F021FD02C080E201C08BE227FD8DE2B6
:1006C000B70190E00E94A30306C0B70180E390E069
:1006D0000E94A3035A94A514C0F3AA94F401EA0D4E
:1006E000F11DB701808190E00E94A303A110F5CF16
:1006F00006C0B70180E290E00E94A3033A94311053
:10070000F8CF43CEF7012681378102C02FEF3FEFAC
:10071000C9012C96E2E10C944904FC01059061505A
:1007200070400110D8F7809590958E0F9F1F089507
:10073000FC016150704001900110D8F780959095B0
:100740008E0F9F1F08950F931F93CF93DF938C01FC
:10075000EB018B8181FD03C00FEF1FEF1AC082FFF9
:100760000DC02E813F818C819D812817390764F44B
:10077000E881F9810193F983E88306C0E885F9856A
:10078000802F0995892B41F78E819F8101969F8348
:100790008E83C801DF91CF911F910F910895FA01C7
:1007A000AA27283051F1203181F1E8946F936E7FB0
:1007B0006E5F7F4F8F4F9F4FAF4FB1E03ED0B4E0A1
:1007C0003CD0670F781F891F9A1FA11D680F791FE2
:1007D0008A1F911DA11D6A0F711D811D911DA11DF3
:1007E00020D009F468943F912AE0269F1124301903
:1007F000305D3193DEF6CF010895462F4770405D9E
:100800004193B3E00FD0C9F7F6CF462F4F70405D4C
:100810004A3318F0495D31FD4052419302D0A9F7A7
:10082000EACFB4E0A6959795879577956795BA95A1
:10083000C9F700976105710508959B01AC010A2E67
:1008400006945795479537952795BA95C9F7620F3E
:10085000731F841F951FA01D08952F923F924F92E2
:100860005F926F927F928F929F92AF92BF92CF9240
:10087000DF92EF92FF920F931F93CF93DF93CDB749
:10088000DEB7CA1BDB0B0FB6F894DEBF0FBECDBFC1
:1008900009942A88398848885F846E847D848C8492
:1008A0009B84AA84B984C884DF80EE80FD800C819B
:1008B0001B81AA81B981CE0FD11D0FB6F894DEBF7E
:0C08C0000FBECDBFED010895F894FFCFEE
:1008CC00015468652070657263656E74206F6620D4
:1008DC007468652062617474657279206973206331
:1008EC00757272656E746C793A20257325640A00F2
:00000001FF
